:100000000C945D000C9483000C9483000C942703E3
:100010000C9483000C94FF020C9483000C948300D6
:100020000C9483000C9483000C9483000C94830044
:100030000C9483000C9483000C9483000C94830034
:100040000C9492080C9483000C946C0A0C9483001A
:100050000C9483000C9483000C9483000C94830014
:100060000C9483000C9483006402BA07910800008A
:100070000007000201000003040600000000000069
:100080000000010204081020408001020408102032
:1000900001020408102004040404040404040202FD
:1000A00002020202030303030303000023262900C4
:1000B0000025282B000024272A0011241FBECFEF83
:1000C000D4E0DEBFCDBF11E0A0E0B1E0E0E3F8E1B5
:1000D00002C005900D92AA3EB107D9F713E0AAEE2F
:1000E000B1E001C01D92AA3CB107E1F710E0CEE6F5
:1000F000D0E004C02297FE010E94140CC836D1073C
:10010000C9F70C9492070C940000CF92EF920F93D2
:10011000CF93DF93EC01688349832A83222341F044
:1001200061E0822F0E94400961E08A810E94A70954
:100130000B83EC82CD82CC2041F061E08C2D0E94BB
:10014000A70961E08D810E944009DF91CF910F9155
:10015000EF90CF900895CF92EF920F93CF93DF93CC
:10016000EC01688349832A83222341F061E0822FD6
:100170000E94400961E08A810E94A7090B83EC82FA
:10018000CD82CC2041F061E08C2D0E94A70961E076
:100190008D810E944009DF91CF910F91EF90CF9018
:1001A0000895AF92BF92CF92DF92EF92FF920F939A
:1001B0001F938C016B018AEEA82E81E0B82EF80106
:1001C0006081C5010E948602F8016181C5010E941B
:1001D0008902EE24FF24B701A601C5010E94500345
:1001E0001F910F91FF90EF90DF90CF90BF90AF9055
:1001F0000895FC018381882319F420E030E004C0D5
:100200000E945E09282F3327C9010895EF92FF92BB
:100210000F931F93CF93DF938C017B01C0E0D0E05D
:100220001CC08AEE91E00E94A502F8019581882306
:1002300039F09923D1F061E0892F0E94A70915C0F8
:10024000992321F060E0892F0E94A70961E070E006
:1002500080E090E00E94CF082196CE15DF0509F7D7
:10026000F8018581882321F406C081E090E005C073
:1002700061E00E94A70980E090E0DF91CF911F919B
:100280000F91FF90EF900895AF92BF92CF92DF92BF
:10029000EF92FF920F931F938C017B0159016A012A
:1002A00063E48AEE91E00E948B04B7018AEE91E04C
:1002B0000E94B3056FE28AEE91E00E948B04B601C2
:1002C000A5018AEE91E00E947A0568EB7BE0C80107
:1002D0000E940601882319F482E090E00BC08AEEA8
:1002E00091E00E948C02833419F083E090E002C018
:1002F00080E090E01F910F91FF90EF90DF90CF9002
:10030000BF90AF900895CF93DF93EC018A8188234B
:1003100069F060E00E94A70962E370E080E090E08D
:100320000E94CF0861E08A810E94A70968E873E112
:10033000CE010E940601882319F482E090E00BC0F0
:100340008AEE91E00E948C02843419F083E090E000
:1003500002C080E090E0DF91CF9108956F927F928C
:100360008F929F92AF92BF92CF92DF92EF92FF92C5
:100370000F931F93CF93DF933C014B01042F59013F
:10038000CC24DD2418C0E12EFF24E401CE0DDF1DB6
:100390001882B501C3010E940601882379F08AEE14
:1003A00091E00E948C020894C11CD11C8A3011F487
:1003B000C70106C088831C2DC01628F3812F9927FA
:1003C000DF91CF911F910F91FF90EF90DF90CF9031
:1003D000BF90AF909F908F907F906F9008950F93F4
:1003E0001F93CF93DF938C01EB0104C08AEE91E061
:1003F0000E948C02BE01C8010E9406018823B1F749
:10040000DF91CF911F910F9108950895CF93DF93BE
:10041000FB0105C08AEE91E00E943204FE01649166
:10042000EF0121966623B1F7DF91CF9108958AEE0F
:1004300091E00E94320408958AEE91E00E94B30593
:1004400008958AEE91E00E948B0408958AEE91E06F
:100450000E94230508958AEE91E00E9457050895B1
:100460008AEE91E00E94850508958AEE91E00E944F
:10047000290508958AEE91E00E94C60508958AEE46
:1004800091E00E94410508958AEE91E00E94A8053E
:1004900008958AEE91E00E947A0508958AEE91E02F
:1004A0000E94360508958AEE91E00E949505089510
:1004B0006F5F7F4F41F4019731F440E060E08AEED6
:1004C00091E00E947C0208956FEF7FEF81E090E061
:1004D0000E945802089520E001972FEF8F3F920766
:1004E000D9F70895FC01609332024093F001108225
:1004F0001182128213820895FC01609332024093AC
:10050000F001108211821282138208956093F0012B
:1005100008956093320208952091F101222319F485
:100520008FEF9FEF08959091F20130E0E32FFF27C6
:10053000EE50FE4F818180833F5F3217B9F7215023
:100540002093F101892F992708958091F10199272E
:1005500008950F931F93CF93DF93809132020E94EF
:100560005E09892B09F046C08091EE019091EF0160
:10057000089720E001972FEF8F3F9207D9F700E00F
:10058000C0E0D0E08091EE019091EF01880F991FBB
:10059000069710E0212F01972FEF8F3F9207D9F791
:1005A000809132020E945E09892B49F081E090E03F
:1005B0000C2E02C0880F991F0A94E2F7082B21968F
:1005C000C830D105F9F68091EE019091EF01880FC6
:1005D000991F01971FEF8F3F9107D9F78091F10184
:1005E000803440F4E82FFF27EE50FE4F00838F5FEA
:1005F0008093F101DF91CF911F910F9108951F9288
:100600000F920FB60F9211242F933F934F935F9346
:100610006F937F938F939F93AF93BF93EF93FF93CA
:1006200080913202883010F40E94A902FF91EF916C
:10063000BF91AF919F918F917F916F915F914F91FA
:100640003F912F910F900FBE0F901F9018951F9202
:100650000F920FB60F9211242F933F934F935F93F6
:100660006F937F938F939F93AF93BF93EF93FF937A
:10067000809132028850863010F40E94A902FF91C6
:10068000EF91BF91AF919F918F917F916F915F910A
:100690004F913F912F910F900FBE0F901F90189583
:1006A000CF92DF92EF92FF920F931F938C016A011A
:1006B0007B0161E08091F0010E94400961E080913E
:1006C000F0010E94A70960E0809132020E94400977
:1006D00061E0809132020E94A709F801C082D182B4
:1006E000E282F382F0E0CF16FBE4DF06F0E0EF06F3
:1006F000F0E0FF0609F466C081E0C8168BE4D80676
:1007000080E0E80680E0F806FCF4E0ECCE16E2E1DA
:10071000DE06E0E0EE06E0E0FE0609F459C0F0E88F
:10072000CF16F5E2DF06F0E0EF06F0E0FF0609F491
:100730004CC080E6C81689E0D80680E0E80680E074
:10074000F80609F04BC047C0E0E0CE16E6E9DE0649
:10075000E0E0EE06E0E0FE0679F1F1E0CF16F6E922
:10076000DF06F0E0EF06F0E0FF0654F482E1C81681
:100770008AE7D80680E0E80680E0F80679F51FC031
:10078000E0E0CE16E1EEDE06E0E0EE06E0E0FE069A
:1007900061F0F0E0CF16F2ECDF06F1E0EF06F0E0FA
:1007A000FF06E1F484E090E002C08EE090E09093D8
:1007B000EF018093EE0116C088E190E0F8CF8FE161
:1007C00090E0F5CF86E390E0F2CF81E790E0EFCFC5
:1007D00088EE90E0ECCF86ED91E0E9CF1092EF014A
:1007E0001092EE0190913202983090F480916D0059
:1007F00021E030E002C0220F331F9A95E2F7822BEE
:1008000080936D008091680084608093680017C0B9
:100810009E30A8F4809168008160809368004091C8
:100820006B00292F33272850304081E090E002C030
:10083000880F991F2A95E2F7482B40936B0080910F
:10084000EE019091EF01880F991F20E001972FEFA3
:100850008F3F9207D9F71F910F91FF90EF90DF9094
:10086000CF9008950F931F93CF93DF93FC01062F32
:1008700080819181A281B3810097A105B10509F41E
:1008800045C0F89460E08091F0010E94A709809132
:10089000EE019091EF01880F991F20E001972FEF53
:1008A0008F3F9207D9F711E0C8E0D0E0802F992759
:1008B000212F332782239323892B11F061E001C07C
:1008C00060E08091F0010E94A7098091EE01909173
:1008D000EF01880F991F20E001972FEF8F3F9207BC
:1008E000D9F7110F219711F761E08091F0010E9473
:1008F000A70978948091EE019091EF01880F991FDC
:1009000020E001972FEF8F3F9207D9F7DF91CF912A
:100910001F910F9108950E94320408952F923F92E3
:100920004F925F926F927F928F929F92AF92BF92FF
:10093000CF92DF92EF92FF920F931F93CF93DF93AB
:10094000CDB7DEB7A2970FB6F894DEBF0FBECDBF0E
:100950009AA389A36A017B014115510561057105BF
:1009600021F460E30E948B0451C0442455243201D9
:10097000822E9924AA24BB241E010894211C311C18
:100980008101040D151DC701B601A50194010E9446
:10099000C10BF80160830894411C511C611C711C3F
:1009A000C701B601A50194010E94C10B69017A013A
:1009B000211531054105510519F772010894E10827
:1009C000F108E20CF31CAA24BB24650113C0F70153
:1009D00060816A3010F4605D01C0695C89A19AA1F0
:1009E0000E948B040894A108B108C108D10808949A
:1009F000E108F10888279927DC0184199509A609DF
:100A0000B709A816B906CA06DB0609F7A2960FB6FB
:100A1000F894DEBF0FBECDBFDF91CF911F910F9134
:100A2000FF90EF90DF90CF90BF90AF909F908F900E
:100A30007F906F905F904F903F902F9008952AE0A5
:100A40000E948E040895AB01662777270E941F0538
:100A500008950F931F938C016DE00E948B046AE050
:100A6000C8010E948B041F910F9108950F931F934B
:100A70008C010E941F05C8010E9429051F910F913A
:100A800008950F931F938C010E943204C8010E94A5
:100A900029051F910F9108950F931F938C010E94B8
:100AA0008B04C8010E9429051F910F910895EF92B0
:100AB000FF920F931F93CF93DF93EC017A018B0189
:100AC00077FF0BC06DE20E948B0410950095F094A7
:100AD000E094E11CF11C011D111D2AE0B801A701E1
:100AE000CE010E948E04DF91CF911F910F91FF9054
:100AF000EF9008950F931F938C010E945705C80132
:100B00000E9429051F910F9108952115310521F4A7
:100B1000642F0E948B0408952A30310519F40E9435
:100B2000570508950E948E0408950F931F938C011A
:100B30000E948505C8010E9429051F910F91089503
:100B4000AB01662757FD6095762F0E9457050895E3
:100B50000F931F938C010E94A005C8010E942905D4
:100B60001F910F9108950F931F93CF93DF938C01E3
:100B7000EB0104C02196C8010E948B0468816623A2
:100B8000C9F7DF91CF911F910F9108950F931F9394
:100B90008C010E94B305C8010E9429051F910F9185
:100BA0000895EF92FF920F931F9361E089E00E94F6
:100BB000400961E08AE00E94400961E08BE00E9408
:100BC000400981E4E82E83E0F82E40E855E260E039
:100BD00070E0C7010E94C30707E313E060E875E215
:100BE000C8010E94D100C8010E94830168E071E041
:100BF000C7010E94F6071F910F91FF90EF90089593
:100C00002FEF30E040E865E372E087E393E00E9475
:100C1000AE018823A9F364E171E085E392E00E94CC
:100C2000910B892B69F464E271E081E493E00E9406
:100C3000D60765E372E081E493E00E94F607E0CF17
:100C40006BE171E081E493E00E94D60765E372E016
:100C500081E493E00E94F60788EC90E008958033E9
:100C600064F08A3314F4805305C0813434F087343F
:100C70001CF4875399270895089580E090E0089523
:100C80008F929F92AF92BF92CF92DF92EF92FF929C
:100C90000F931F93CF93DF93CDB7DEB7C456D040E9
:100CA0000FB6F894DEBF0FBECDBF8C016B015A01A9
:100CB0004901DE011196EFE3F1E087E001900D922A
:100CC0008150E1F78DE5FE01389611928A95E9F79A
:100CD00064E171E0C8010E94910B8C01892B09F439
:100CE00067C069E271E081E493E00E94D607B80131
:100CF00081E493E00E94F60766E270E0C8010E947A
:100D00007E0B7C01892B59F062E371E081E493E072
:100D10000E94D607B70181E493E00E94F607B8016C
:100D20006A5F7F4FCE0101960E948A0B1F8269E3A2
:100D300071E081E493E00E94D607BE016F5F7F4FB0
:100D400081E493E00E94F60781E493E00E94CF07DC
:100D500089810E942F06082F112734E0000F111FF0
:100D60003A95E1F78A810E942F06800FF601808371
:100D70008B810E942F06082F112724E0000F111FDE
:100D80002A95E1F78C810E942F06800FF501808360
:100D90008D810E942F06082F112794E0000F111F4C
:100DA0009A95E1F78E810E942F06800FF4018083CF
:100DB000CC59DF4F0FB6F894DEBF0FBECDBFDF9129
:100DC000CF911F910F91FF90EF90DF90CF90BF9048
:100DD000AF909F908F900895CF93DF93CDB7DEB7FC
:100DE00023970FB6F894DEBF0FBECDBF81E493E02A
:100DF0000E94C807882309F446C081E493E00E945A
:100E0000CC0780933403A0913302B091340288352B
:100E100051F0FD01EB5CFD4F80831196B0933402DD
:100E2000A093330230C0AB5CBD4F1C9263EA71E00B
:100E300081E493E00E94D60765E372E081E493E0E9
:100E40000E94F60781E493E00E94CF0710923402DB
:100E5000109233029E012D5F3F4FAE014E5F5F4FF8
:100E6000BE016F5F7F4F85E392E00E94400669817B
:100E700089E00E94A7096A818AE00E94A7096B8124
:100E80008BE00E94A70923960FB6F894DEBF0FBE31
:100E9000CDBFDF91CF9108950F931F93CF93DF9331
:100EA000CDB7DEB723970FB6F894DEBF0FBECDBF28
:100EB0000E9400069E012D5F3F4FAE014E5F5F4FC7
:100EC000BE016F5F7F4F85E392E00E94400669811B
:100ED00089E00E94A7096A818AE00E94A7096B81C4
:100EE0008BE00E94A70907E313E068EA71E0C801FC
:100EF0000E943A0262E370E0C8010E94EF0168ECD0
:100F000070E0C8010E94EF01C8010E94050223960B
:100F10000FB6F894DEBF0FBECDBFDF91CF911F910A
:100F20000F910895CFEFD4E0DEBFCDBF0E94FE0841
:100F30000E94D1050E944C07FDCFCF92EF920F93F4
:100F40006F5F7F4F99F4019789F442E063E08DE38E
:100F500093E00E947C0246E0C42EEE2400E024E0F0
:100F600043E062E087E393E00E94AB000F91EF90D3
:100F7000CF9008956FEF7FEF81E090E00E949D0792
:100F8000089508950895CB01BA010E94F2090895C9
:100F90000E94330A992708950E94440A08950E94E6
:100FA000630A0895862F0E94AA0A0895CB010E9421
:100FB000B10A0895862F0E94AA0A08950F931F93DD
:100FC0008C016DE00E94D2076AE0C8010E94D2073E
:100FD0001F910F9108950F931F938C010E94D207C8
:100FE000C8010E94DE071F910F9108950F931F9370
:100FF0008C010E94D607C8010E94DE071F910F9145
:1010000008950F931F938C010E94DA07C8010E9474
:10101000DE071F910F910895CB01BA0133274427B2
:1010200055270E94BE0A08952AE00E940C080895E0
:101030000F931F938C010E941408C8010E94DE07C1
:101040001F910F910895AB01662777270E9414081E
:1010500008950F931F938C010E942308C8010E94DA
:10106000DE071F910F910895EF92FF920F931F9348
:10107000CF93DF93EC017A018B0177FF0BC06DE218
:101080000E94D20710950095F094E094E11CF11CA9
:10109000011D111D2AE0B801A701CE010E940C0814
:1010A000DF91CF911F910F91FF90EF9008950F93D3
:1010B0001F938C010E943408C8010E94DE071F9113
:1010C0000F9108952115310521F4642F0E94D20754
:1010D00008952A30310519F40E94340808950E94B9
:1010E0000C0808950F931F938C010E946208C80199
:1010F0000E94DE071F910F910895AB01662757FDEF
:101100006095762F0E94340808950F931F938C01E9
:101110000E947D08C8010E94DE071F910F9108956B
:10112000089508951F920F920FB60F9211248F9376
:101130009F93AF93BF938091460390914703A091F3
:101140004803B09149030196A11DB11D8093460348
:1011500090934703A0934803B0934903BF91AF9185
:101160009F918F910F900FBE0F901F9018956091D7
:10117000460370914703809148039091490327E00B
:10118000660F771F881F991F2A95D1F72DE730E04A
:1011900040E050E00E94C10BCA01B9010895AF922E
:1011A000BF92CF92DF92EF92FF920F931F935B015A
:1011B0006C010E94B7087B018C010E94B7086E1970
:1011C0007F09800B910B6A157B058C059D05A8F3A3
:1011D0001F910F91FF90EF90DF90CF90BF90AF9055
:1011E0000895019751F0880F991F880F991F029752
:1011F0002FB7F8940197F1F72FBF089578941092C4
:10120000460310924703109248031092490384B595
:10121000826084BD84B5816084BD85B5826085BDF2
:1012200085B5816085BDEEE6F0E0808181608083D8
:10123000E1E8F0E08081826080838081816080834A
:10124000E0E8F0E0808181608083E1EBF0E0808184
:1012500084608083E0EBF0E0808181608083EAE756
:10126000F0E08081846080838081826080838081DF
:10127000816080838081806880831092C10008959E
:10128000282F3327C9018E579F4FFC0194912A566E
:101290003F4FF9018491882381F0E82FFF27EC5418
:1012A000FF4FE491FF27662329F4808190958923DD
:1012B000808308958081892B80830895482F552746
:1012C000CA0182599F4FFC012491CA018E579F4F3A
:1012D000FC0194914A565F4FFA0134913323A1F1F6
:1012E000222331F1233021F4809180008F7705C0D3
:1012F000243031F4809180008F7D8093800018C06D
:10130000213019F484B58F7704C0223021F484B5DC
:101310008F7D84BD0DC0263021F48091B0008F7781
:1013200005C0273029F48091B0008F7D8093B000F4
:10133000E32FFF27E655FF4FE491FF2780818923A4
:1013400019F081E090E0089580E090E00895482F42
:101350005527CA0182599F4FFC012491CA018E571B
:101360009F4FFC0194914A565F4FFA013491332309
:10137000C1F1222331F1233021F4809180008F7755
:1013800005C0243031F4809180008F7D80938000EF
:1013900018C0213019F484B58F7704C0223021F4AD
:1013A00084B58F7D84BD0DC0263021F48091B000BE
:1013B0008F7705C0273029F48091B0008F7D80930E
:1013C000B000E32FFF27E155FF4FE491FF2766238D
:1013D00029F4808190958923808308958081892BC9
:1013E00080830895EF92FF920F931F937B018C01EE
:1013F00022E030E040E050E00E94E30B205C3D4BF7
:10140000404F5F4FCA01B901A80197010E94E30B49
:101410002150304040405040BB2757FDBA95A52F82
:10142000942F832F2F5F3F4F4F4F5F4F8093C50007
:1014300021502093C400E1ECF0E080818061808342
:101440008081886080838081806880831F910F9174
:10145000FF90EF900895982F8091C00085FFFCCFFA
:101460009093C60008958091440390914503209184
:10147000420330914303821B930B80589F4F60E8D7
:1014800070E00E94AE0B08954091420350914303D7
:1014900080914403909145038417950719F48FEFC9
:1014A0009FEF0895FA01E65BFC4F2081CA01019687
:1014B00060E870E00E94AE0B909343038093420378
:1014C000822F99270895809142039091430390932E
:1014D00045038093440308951F920F920FB60F9215
:1014E00011242F933F934F935F936F937F938F9329
:1014F0009F93AF93BF93EF93FF934091C600E0910A
:101500004403F0914503CF01019660E870E00E942A
:10151000AE0B9C0180914203909143032817390739
:1015200039F0E65BFC4F408330934503209344033E
:10153000FF91EF91BF91AF919F918F917F916F91AB
:101540005F914F913F912F910F900FBE0F901F9081
:10155000189508950E942B0A08958AE00E94AA0A0D
:101560000895CF93DF93EC0103C021960E94AA0A4D
:1015700088818823D1F7DF91CF9108952F923F92F0
:101580004F925F926F927F928F929F92AF92BF9293
:10159000CF92DF92EF92FF920F931F93CF93DF933F
:1015A000CDB7DEB7A0970FB6F894DEBF0FBECDBFA4
:1015B0006B017C0119012A016115710581059105F5
:1015C00021F480E30E94AA0A4BC0662477244301D9
:1015D0005E010894A11CB11C8501060D171DC701F1
:1015E000B601A20191010E94C10BF8016083089429
:1015F000611C711C811C911CC701B601A2019101E3
:101600000E94C10B69017A0121153105410551057F
:1016100019F773010894E108F108EA0CFB1CAA24ED
:10162000BB24650111C0F70180818A3010F4805D10
:1016300001C0895C0E94AA0A0894A108B108C108E7
:10164000D1080894E108F10888279927DC01861958
:101650009709A809B909A816B906CA06DB0619F739
:10166000A0960FB6F894DEBF0FBECDBFDF91CF912D
:101670001F910F91FF90EF90DF90CF90BF90AF90B0
:101680009F908F907F906F905F904F903F902F90A2
:101690000895EF92FF920F931F937B018C0197FFA8
:1016A0000BC08DE20E94AA0A10950095F094E09478
:1016B000E11CF11C011D111D2AE030E040E050E06A
:1016C000C801B7010E94BE0A1F910F91FF90EF90D1
:1016D000089520E130E040E050E00E94BE0A089505
:1016E00028E030E040E050E00E94BE0A089522E089
:1016F00030E040E050E00E94BE0A0895FC010190F5
:10170000061629F00020D9F78827992708953197E0
:10171000CF010895FB01DC0101900D920020E1F75B
:101720000895DC01FB014191442309F40895FB0174
:1017300041912D91222369F02417CD01D1F74191D8
:10174000442351F02C91222321F0241781F7119684
:10175000F6CF8827992708950197089597FB092EBA
:1017600007260AD077FD04D049D006D000201AF40D
:10177000709561957F4F0895F6F7909581959F4FED
:101780000895A1E21A2EAA1BBB1BFD010DC0AA1FC2
:10179000BB1FEE1FFF1FA217B307E407F50720F0DA
:1017A000A21BB30BE40BF50B661F771F881F991F55
:1017B0001A9469F760957095809590959B01AC019E
:1017C000BD01CF01089597FB092E05260ED057FDC8
:1017D00004D0D7DF0AD0001C38F4509540953095DE
:1017E00021953F4F4F4F5F4F0895F6F790958095A5
:1017F000709561957F4F8F4F9F4F0895AA1BBB1B1C
:1018000051E107C0AA1FBB1FA617B70710F0A61B00
:10181000B70B881F991F5A95A9F780959095BC0121
:10182000CD010895EE0FFF1F0590F491E02D09946E
:101830000A0001000100FF0058506F7274207265A9
:1018400061647900636F6C6F723D002D2D2D2D2D1D
:101850002D2D2D0058585858007374617274733AC6
:101860002000656E64733A2000636F6C3A20004676
:10187000464646464600000000000000000000000A
:101880000000000000000000000000000000000058
:101890000000000000000000000000000000000048
:1018A0000000000000000000000000000000000038
:1018B0000000000000000000000000000000000028
:1018C0000000000000000000000000000000000018
:1018D000000000676F743A00485454502F312E3086
:1018E00020323030204F4B0A5365727665723A20B1
:1018F00048414C20393030300A436F6E74656E7445
:101900002D547970653A20746578742F68746D6C05
:0A1910000A0A446F6E65210A000008
:00000001FF
